{
  "address": "0x83EC7f2F4B9f50eB964ea181F09aF84a98418ece",
  "abi": [
    {
      "anonymous": false,
      "inputs": [
        {
          "indexed": false,
          "internalType": "address",
          "name": "gameAddress",
          "type": "address"
        },
        {
          "indexed": false,
          "internalType": "address",
          "name": "admin",
          "type": "address"
        },
        {
          "indexed": false,
          "internalType": "uint256",
          "name": "timeLimit",
          "type": "uint256"
        },
        {
          "indexed": false,
          "internalType": "uint256",
          "name": "scorePoint",
          "type": "uint256"
        }
      ],
      "name": "GameDeployed",
      "type": "event"
    },
    {
      "inputs": [
        {
          "internalType": "address",
          "name": "_admin",
          "type": "address"
        },
        {
          "internalType": "uint256",
          "name": "_timeLimit",
          "type": "uint256"
        },
        {
          "internalType": "uint256",
          "name": "_scorePoint",
          "type": "uint256"
        }
      ],
      "name": "createGame",
      "outputs": [],
      "stateMutability": "nonpayable",
      "type": "function"
    },
    {
      "inputs": [
        {
          "internalType": "uint256",
          "name": "",
          "type": "uint256"
        }
      ],
      "name": "deployedGames",
      "outputs": [
        {
          "internalType": "address",
          "name": "",
          "type": "address"
        }
      ],
      "stateMutability": "view",
      "type": "function"
    },
    {
      "inputs": [],
      "name": "getDeployedGames",
      "outputs": [
        {
          "internalType": "address[]",
          "name": "",
          "type": "address[]"
        }
      ],
      "stateMutability": "view",
      "type": "function"
    }
  ],
  "transactionHash": "0x9cad1bee27b2d633b86cde19a30742f245a0df2a1cfafd710008bb24e62c6f9b",
  "args": [],
  "numDeployments": 1,
  "solcInputHash": "f5f10ee393166a749836688d499a04bb",
  "bytecode": "0x608060405234801561001057600080fd5b50611ed4806100206000396000f3fe608060405234801561001057600080fd5b50600436106100415760003560e01c80633b17469e14610046578063657908d11461005b578063eae81c371461008b575b600080fd5b610059610054366004610222565b6100a0565b005b61006e610069366004610263565b610189565b6040516001600160a01b0390911681526020015b60405180910390f35b6100936101b3565b604051610082919061027c565b60008383836040516100b190610215565b6001600160a01b03909316835260208301919091526040820152606001604051809103906000f0801580156100ea573d6000803e3d6000fd5b50600080546001810182559080527f290decd9548b62a8d60345a988386fc84ba6bc95484008f6362f93160ef3e5630180546001600160a01b0319166001600160a01b03838116918217909255604080519182529187166020820152908101859052606081018490529091507febf3b51c57d35f8cc61238336978b143133c077727093f8c422051710fb3d3519060800160405180910390a150505050565b6000818154811061019957600080fd5b6000918252602090912001546001600160a01b0316905081565b6060600080548060200260200160405190810160405280929190818152602001828054801561020b57602002820191906000526020600020905b81546001600160a01b031681526001909101906020018083116101ed575b5050505050905090565b611bd5806102ca83390190565b60008060006060848603121561023757600080fd5b83356001600160a01b038116811461024e57600080fd5b95602085013595506040909401359392505050565b60006020828403121561027557600080fd5b5035919050565b6020808252825182820181905260009190848201906040850190845b818110156102bd5783516001600160a01b031683529284019291840191600101610298565b5090969550505050505056fe60c060405234801561001057600080fd5b50604051611bd5380380611bd583398101604081905261002f9161005b565b600480546001600160a01b0319166001600160a01b03949094169390931790925560805260a05261009e565b60008060006060848603121561007057600080fd5b83516001600160a01b038116811461008757600080fd5b602085015160409095015190969495509392505050565b60805160a051611b046100d16000396000818161019a01526107c501526000818161022c015261079e0152611b046000f3fe608060405234801561001057600080fd5b50600436106101375760003560e01c80638a19c8bc116100b8578063c1ecf1751161007c578063c1ecf175146102ca578063c315432a146102dd578063c821125a146102ea578063cea135161461030a578063e31b1d3e1461031f578063f851a4401461034257600080fd5b80638a19c8bc1461024e5780638cb147c5146102575780638dc107681461025f57806396c3683c14610283578063ba1652db146102c157600080fd5b80633e050efb116100ff5780633e050efb146101ca5780633ed2b77a146101ea5780635fae60a11461020b578063654c6daf1461021e578063698224ae1461022757600080fd5b80630926e6a21461013c5780631ceac7a31461015157806322ac35bc146101645780633a08a4e3146101825780633ccc5e9114610195575b600080fd5b61014f61014a366004611295565b61036d565b005b61014f61015f366004611389565b610465565b61016c6105aa565b6040516101799190611485565b60405180910390f35b61014f610190366004611549565b610707565b6101bc7f000000000000000000000000000000000000000000000000000000000000000081565b604051908152602001610179565b6101bc6101d8366004611295565b60096020526000908152604090205481565b6101fd6101f8366004611295565b610895565b604051610179929190611599565b61014f6102193660046115d2565b610951565b6101bc60035481565b6101bc7f000000000000000000000000000000000000000000000000000000000000000081565b6101bc60065481565b61014f610ac3565b61027261026d366004611295565b610b32565b604051610179959493929190611694565b6102b16102913660046116e0565b600260209081526000928352604080842090915290825290205460ff1681565b6040519015158152602001610179565b6101bc60055481565b61014f6102d8366004611295565b610c97565b6007546102b19060ff1681565b6102fd6102f8366004611295565b610d41565b604051610179919061170c565b610312610f79565b6040516101799190611726565b6102b161032d3660046117d8565b60086020526000908152604090205460ff1681565b600454610355906001600160a01b031681565b6040516001600160a01b039091168152602001610179565b60005b6003548110156103bd57600081815260026020908152604080832033845290915290205460ff16156103b55760405163602e698d60e01b815260040160405180910390fd5b600101610370565b5060008181526002602090815260408083203384529091528120805460ff191660011790558054829081106103f4576103f46117f3565b60009182526020808320600160039093020182018054928301815583529091200180546001600160a01b031916339081179091556040517fb29b57413160b0083e91ebf1cd4f03c7e5656ed87a7162fc39e67b0c4dbeee2e9061045a9084815260200190565b60405180910390a250565b6004546001600160a01b03163314610490576040516317bf519960e11b815260040160405180910390fd5b60005b815181101561057d5760016040518060a001604052808484815181106104bb576104bb6117f3565b60209081029190910181015182526040805180830182526000808252848401919091529083018190526060830181905260809092018290528354600181018555938252902081519192600502019081906105159082611893565b506020820151600182019061052a9082611893565b50604082015160028201805460ff191691151591909117905560608201516003820155608090910151600490910180546001600160a01b0319166001600160a01b03909216919091179055600101610493565b506040517f7e568be392f71b12c576e544dab9be1c057f35722b2ba7a586dcfba76159765190600090a150565b60606000805480602002602001604051908101604052809291908181526020016000905b828210156106fe578382906000526020600020906003020160405180606001604052908160008201805461060190611809565b80601f016020809104026020016040519081016040528092919081815260200182805461062d90611809565b801561067a5780601f1061064f5761010080835404028352916020019161067a565b820191906000526020600020905b81548152906001019060200180831161065d57829003601f168201915b50505050508152602001600182018054806020026020016040519081016040528092919081815260200182805480156106dc57602002820191906000526020600020905b81546001600160a01b031681526001909101906020018083116106be575b50505050508152602001600282015481525050815260200190600101906105ce565b50505050905090565b6004546001600160a01b03163314610732576040516317bf519960e11b815260040160405180910390fd5b8260035481106107555760405163dc627d7960e01b815260040160405180910390fd5b600554841461077757604051630386e94160e61b815260040160405180910390fd5b6000848152600960205260408120546107909042611969565b905061079c8484611125565b7f0000000000000000000000000000000000000000000000000000000000000000811161081d577f0000000000000000000000000000000000000000000000000000000000000000600086815481106107f7576107f76117f3565b906000526020600020906003020160020160008282546108179190611982565b90915550505b600085815260096020526040812081905580547fd3e8dbbe8ff60a1fae1e5f88e71f27270ed38badc7b26e19922ed94fd12f5fe991879182908110610864576108646117f3565b9060005260206000209060030201600201548560405161088693929190611995565b60405180910390a15050505050565b600081815481106108a557600080fd5b90600052602060002090600302016000915090508060000180546108c890611809565b80601f01602080910402602001604051908101604052809291908181526020018280546108f490611809565b80156109415780601f1061091657610100808354040283529160200191610941565b820191906000526020600020905b81548152906001019060200180831161092457829003601f168201915b5050505050908060020154905082565b6004546001600160a01b0316331461097c576040516317bf519960e11b815260040160405180910390fd5b604080516060810182528381526020810183905260009181018290528154600181018355918052805190916003027f290decd9548b62a8d60345a988386fc84ba6bc95484008f6362f93160ef3e563019081906109d99082611893565b5060208281015180516109f2926001850192019061121b565b5060408201518160020155505060005b8151811015610a705760016002600060035481526020019081526020016000206000848481518110610a3657610a366117f3565b6020908102919091018101516001600160a01b03168252810191909152604001600020805460ff1916911515919091179055600101610a02565b5060038054906000610a81836119bd565b91905055507fc169c1ff867a5c4baeba7cb6f6fb82962af33ef24024e6caa4c95c61e8ef20d68282604051610ab79291906119d6565b60405180910390a15050565b6004546001600160a01b03163314610aee576040516317bf519960e11b815260040160405180910390fd5b6007805460ff19166001179055600554610b0790610c97565b6040517f762f260439bb4be3ef6e4dc2786e2e7bd187d3d80b79057d7a424fe98563e33590600090a1565b60018181548110610b4257600080fd5b9060005260206000209060050201600091509050806000018054610b6590611809565b80601f0160208091040260200160405190810160405280929190818152602001828054610b9190611809565b8015610bde5780601f10610bb357610100808354040283529160200191610bde565b820191906000526020600020905b815481529060010190602001808311610bc157829003601f168201915b505050505090806001018054610bf390611809565b80601f0160208091040260200160405190810160405280929190818152602001828054610c1f90611809565b8015610c6c5780601f10610c4157610100808354040283529160200191610c6c565b820191906000526020600020905b815481529060010190602001808311610c4f57829003601f168201915b5050505060028301546003840154600490940154929360ff909116929091506001600160a01b031685565b6004546001600160a01b03163314610cc2576040516317bf519960e11b815260040160405180910390fd5b806003548110610ce55760405163dc627d7960e01b815260040160405180910390fd5b600582905560068054906000610cfa836119bd565b91905055506006547f278844837bcf8364a705384bf3a2812901f54155bae86dea81dd52aa5b9ec0e3600554604051610d3591815260200190565b60405180910390a25050565b60075460609060ff16610d675760405163014646cd60e71b815260040160405180910390fd5b600554600090815260026020908152604080832033845290915281205460ff1615159003610da85760405163602e698d60e01b815260040160405180910390fd5b3360009081526008602052604090205460ff1615610dd9576040516365cf0fdd60e11b815260040160405180910390fd5b600060018381548110610dee57610dee6117f3565b60009182526020909120600590910201600281015490915060ff1615610e27576040516315bbe07d60e21b815260040160405180910390fd5b60028101805460ff1990811660019081179092556004830180546001600160a01b0319163390811790915560058054600386015560008281526008602090815260408083208054909616909617909455815481526009909352918390204290559054915190917fb8ae1a131e0728178e2a29bbc9b290fce41e280d3e85be8900b04082ac3f46d291610ebb91908590611a36565b60405180910390a260018381548110610ed657610ed66117f3565b90600052602060002090600502016000018054610ef290611809565b80601f0160208091040260200160405190810160405280929190818152602001828054610f1e90611809565b8015610f6b5780601f10610f4057610100808354040283529160200191610f6b565b820191906000526020600020905b815481529060010190602001808311610f4e57829003601f168201915b50505050509150505b919050565b60606001805480602002602001604051908101604052809291908181526020016000905b828210156106fe57838290600052602060002090600502016040518060a0016040529081600082018054610fd090611809565b80601f0160208091040260200160405190810160405280929190818152602001828054610ffc90611809565b80156110495780601f1061101e57610100808354040283529160200191611049565b820191906000526020600020905b81548152906001019060200180831161102c57829003601f168201915b5050505050815260200160018201805461106290611809565b80601f016020809104026020016040519081016040528092919081815260200182805461108e90611809565b80156110db5780601f106110b0576101008083540402835291602001916110db565b820191906000526020600020905b8154815290600101906020018083116110be57829003601f168201915b5050509183525050600282015460ff161515602080830191909152600383015460408301526004909201546001600160a01b03166060909101529082526001929092019101610f9d565b6004546001600160a01b03163314611150576040516317bf519960e11b815260040160405180910390fd5b60018281548110611163576111636117f3565b600091825260209091206002600590920201015460ff166111975760405163c9991f6560e01b815260040160405180910390fd5b600182815481106111aa576111aa6117f3565b906000526020600020906005020160010180546111c690611809565b1590506111e5576040516239aa4960ea1b815260040160405180910390fd5b80600183815481106111f9576111f96117f3565b906000526020600020906005020160010190816112169190611893565b505050565b828054828255906000526020600020908101928215611270579160200282015b8281111561127057825182546001600160a01b0319166001600160a01b0390911617825560209092019160019091019061123b565b5061127c929150611280565b5090565b5b8082111561127c5760008155600101611281565b6000602082840312156112a757600080fd5b5035919050565b634e487b7160e01b600052604160045260246000fd5b604051601f8201601f1916810167ffffffffffffffff811182821017156112ed576112ed6112ae565b604052919050565b600067ffffffffffffffff82111561130f5761130f6112ae565b5060051b60200190565b600082601f83011261132a57600080fd5b813567ffffffffffffffff811115611344576113446112ae565b611357601f8201601f19166020016112c4565b81815284602083860101111561136c57600080fd5b816020850160208301376000918101602001919091529392505050565b6000602080838503121561139c57600080fd5b823567ffffffffffffffff808211156113b457600080fd5b818501915085601f8301126113c857600080fd5b81356113db6113d6826112f5565b6112c4565b81815260059190911b830184019084810190888311156113fa57600080fd5b8585015b83811015611432578035858111156114165760008081fd5b6114248b89838a0101611319565b8452509186019186016113fe565b5098975050505050505050565b6000815180845260005b8181101561146557602081850181015186830182015201611449565b506000602082860101526020601f19601f83011685010191505092915050565b600060208083018184528085518083526040925060408601915060408160051b8701018488016000805b8481101561153a57603f198a85030186528251606081518187526114d58288018261143f565b838c0151888203898e01528051808352908d019350869250908c01905b8083101561151b5783516001600160a01b03168252928c019260019290920191908c01906114f2565b50928a0151968a019690965250958801959350918701916001016114af565b50919998505050505050505050565b60008060006060848603121561155e57600080fd5b8335925060208401359150604084013567ffffffffffffffff81111561158357600080fd5b61158f86828701611319565b9150509250925092565b6040815260006115ac604083018561143f565b90508260208301529392505050565b80356001600160a01b0381168114610f7457600080fd5b600080604083850312156115e557600080fd5b823567ffffffffffffffff808211156115fd57600080fd5b61160986838701611319565b935060209150818501358181111561162057600080fd5b85019050601f8101861361163357600080fd5b80356116416113d6826112f5565b81815260059190911b8201830190838101908883111561166057600080fd5b928401925b8284101561168557611676846115bb565b82529284019290840190611665565b80955050505050509250929050565b60a0815260006116a760a083018861143f565b82810360208401526116b9818861143f565b9515156040840152505060608101929092526001600160a01b031660809091015292915050565b600080604083850312156116f357600080fd5b82359150611703602084016115bb565b90509250929050565b60208152600061171f602083018461143f565b9392505050565b600060208083018184528085518083526040925060408601915060408160051b87010184880160005b838110156117ca57603f19898403018552815160a081518186526117758287018261143f565b915050888201518582038a87015261178d828261143f565b838a01511515878b0152606080850151908801526080938401516001600160a01b031693909601929092525050938601939086019060010161174f565b509098975050505050505050565b6000602082840312156117ea57600080fd5b61171f826115bb565b634e487b7160e01b600052603260045260246000fd5b600181811c9082168061181d57607f821691505b60208210810361183d57634e487b7160e01b600052602260045260246000fd5b50919050565b601f821115611216576000816000526020600020601f850160051c8101602086101561186c5750805b601f850160051c820191505b8181101561188b57828155600101611878565b505050505050565b815167ffffffffffffffff8111156118ad576118ad6112ae565b6118c1816118bb8454611809565b84611843565b602080601f8311600181146118f657600084156118de5750858301515b600019600386901b1c1916600185901b17855561188b565b600085815260208120601f198616915b8281101561192557888601518255948401946001909101908401611906565b50858210156119435787850151600019600388901b60f8161c191681555b5050505050600190811b01905550565b634e487b7160e01b600052601160045260246000fd5b8181038181111561197c5761197c611953565b92915050565b8082018082111561197c5761197c611953565b8381528260208201526060604082015260006119b4606083018461143f565b95945050505050565b6000600182016119cf576119cf611953565b5060010190565b6040815260006119e9604083018561143f565b82810360208481019190915284518083528582019282019060005b81811015611a295784516001600160a01b031683529383019391830191600101611a04565b5090979650505050505050565b828152600060206040602084015260008454611a5181611809565b8060408701526060600180841660008114611a735760018114611a8f57611abf565b60ff19851660608a0152606084151560051b8a01019550611abf565b89600052602060002060005b85811015611ab65781548b8201860152908301908801611a9b565b8a016060019650505b5093999850505050505050505056fea26469706673582212205f8be59a450ffa644ccdd40e52b023ec0a361328eba49de792c5dad3503c7c2264736f6c63430008180033a26469706673582212200b88cd088a5ae224f105d83c7c94bd9bf0156e6a61216a203b7b3533f693217d64736f6c63430008180033",
  "devdoc": {
    "kind": "dev",
    "methods": {},
    "version": 1
  },
  "userdoc": {
    "kind": "user",
    "methods": {},
    "version": 1
  },
  "storageLayout": {
    "storage": [
      {
        "astId": 593,
        "contract": "contracts/game/CharadeGameFactory.sol:CharadeGameFactory",
        "label": "deployedGames",
        "offset": 0,
        "slot": "0",
        "type": "t_array(t_address)dyn_storage"
      }
    ],
    "types": {
      "t_address": {
        "encoding": "inplace",
        "label": "address",
        "numberOfBytes": "20"
      },
      "t_array(t_address)dyn_storage": {
        "base": "t_address",
        "encoding": "dynamic_array",
        "label": "address[]",
        "numberOfBytes": "32"
      }
    }
  }
}